{
  "_format": "hh-sol-artifact-1",
  "contractName": "Scottcoin",
  "sourceName": "contracts/Scottcoin.sol",
  "abi": [
    {
      "inputs": [],
      "stateMutability": "nonpayable",
      "type": "constructor"
    },
    {
      "inputs": [
        {
          "internalType": "address",
          "name": "spender",
          "type": "address"
        },
        {
          "internalType": "uint256",
          "name": "allowance",
          "type": "uint256"
        },
        {
          "internalType": "uint256",
          "name": "needed",
          "type": "uint256"
        }
      ],
      "name": "ERC20InsufficientAllowance",
      "type": "error"
    },
    {
      "inputs": [
        {
          "internalType": "address",
          "name": "sender",
          "type": "address"
        },
        {
          "internalType": "uint256",
          "name": "balance",
          "type": "uint256"
        },
        {
          "internalType": "uint256",
          "name": "needed",
          "type": "uint256"
        }
      ],
      "name": "ERC20InsufficientBalance",
      "type": "error"
    },
    {
      "inputs": [
        {
          "internalType": "address",
          "name": "approver",
          "type": "address"
        }
      ],
      "name": "ERC20InvalidApprover",
      "type": "error"
    },
    {
      "inputs": [
        {
          "internalType": "address",
          "name": "receiver",
          "type": "address"
        }
      ],
      "name": "ERC20InvalidReceiver",
      "type": "error"
    },
    {
      "inputs": [
        {
          "internalType": "address",
          "name": "sender",
          "type": "address"
        }
      ],
      "name": "ERC20InvalidSender",
      "type": "error"
    },
    {
      "inputs": [
        {
          "internalType": "address",
          "name": "spender",
          "type": "address"
        }
      ],
      "name": "ERC20InvalidSpender",
      "type": "error"
    },
    {
      "inputs": [
        {
          "internalType": "address",
          "name": "owner",
          "type": "address"
        }
      ],
      "name": "OwnableInvalidOwner",
      "type": "error"
    },
    {
      "inputs": [
        {
          "internalType": "address",
          "name": "account",
          "type": "address"
        }
      ],
      "name": "OwnableUnauthorizedAccount",
      "type": "error"
    },
    {
      "anonymous": false,
      "inputs": [
        {
          "indexed": true,
          "internalType": "address",
          "name": "owner",
          "type": "address"
        },
        {
          "indexed": true,
          "internalType": "address",
          "name": "spender",
          "type": "address"
        },
        {
          "indexed": false,
          "internalType": "uint256",
          "name": "value",
          "type": "uint256"
        }
      ],
      "name": "Approval",
      "type": "event"
    },
    {
      "anonymous": false,
      "inputs": [
        {
          "indexed": true,
          "internalType": "address",
          "name": "previousOwner",
          "type": "address"
        },
        {
          "indexed": true,
          "internalType": "address",
          "name": "newOwner",
          "type": "address"
        }
      ],
      "name": "OwnershipTransferred",
      "type": "event"
    },
    {
      "anonymous": false,
      "inputs": [
        {
          "indexed": true,
          "internalType": "address",
          "name": "from",
          "type": "address"
        },
        {
          "indexed": true,
          "internalType": "address",
          "name": "to",
          "type": "address"
        },
        {
          "indexed": false,
          "internalType": "uint256",
          "name": "value",
          "type": "uint256"
        }
      ],
      "name": "Transfer",
      "type": "event"
    },
    {
      "inputs": [],
      "name": "QUIZ_REWARD",
      "outputs": [
        {
          "internalType": "uint256",
          "name": "",
          "type": "uint256"
        }
      ],
      "stateMutability": "view",
      "type": "function"
    },
    {
      "inputs": [
        {
          "internalType": "address",
          "name": "owner",
          "type": "address"
        },
        {
          "internalType": "address",
          "name": "spender",
          "type": "address"
        }
      ],
      "name": "allowance",
      "outputs": [
        {
          "internalType": "uint256",
          "name": "",
          "type": "uint256"
        }
      ],
      "stateMutability": "view",
      "type": "function"
    },
    {
      "inputs": [
        {
          "internalType": "address",
          "name": "spender",
          "type": "address"
        },
        {
          "internalType": "uint256",
          "name": "value",
          "type": "uint256"
        }
      ],
      "name": "approve",
      "outputs": [
        {
          "internalType": "bool",
          "name": "",
          "type": "bool"
        }
      ],
      "stateMutability": "nonpayable",
      "type": "function"
    },
    {
      "inputs": [
        {
          "internalType": "address",
          "name": "account",
          "type": "address"
        }
      ],
      "name": "balanceOf",
      "outputs": [
        {
          "internalType": "uint256",
          "name": "",
          "type": "uint256"
        }
      ],
      "stateMutability": "view",
      "type": "function"
    },
    {
      "inputs": [
        {
          "internalType": "address",
          "name": "account",
          "type": "address"
        }
      ],
      "name": "calculateReward",
      "outputs": [
        {
          "internalType": "uint256",
          "name": "",
          "type": "uint256"
        }
      ],
      "stateMutability": "view",
      "type": "function"
    },
    {
      "inputs": [],
      "name": "decimals",
      "outputs": [
        {
          "internalType": "uint8",
          "name": "",
          "type": "uint8"
        }
      ],
      "stateMutability": "view",
      "type": "function"
    },
    {
      "inputs": [
        {
          "internalType": "address",
          "name": "account",
          "type": "address"
        }
      ],
      "name": "getPendingReward",
      "outputs": [
        {
          "internalType": "uint256",
          "name": "",
          "type": "uint256"
        }
      ],
      "stateMutability": "view",
      "type": "function"
    },
    {
      "inputs": [
        {
          "internalType": "address",
          "name": "account",
          "type": "address"
        }
      ],
      "name": "getStakingBalance",
      "outputs": [
        {
          "internalType": "uint256",
          "name": "",
          "type": "uint256"
        }
      ],
      "stateMutability": "view",
      "type": "function"
    },
    {
      "inputs": [
        {
          "internalType": "address",
          "name": "",
          "type": "address"
        }
      ],
      "name": "hasCompletedQuiz",
      "outputs": [
        {
          "internalType": "bool",
          "name": "",
          "type": "bool"
        }
      ],
      "stateMutability": "view",
      "type": "function"
    },
    {
      "inputs": [
        {
          "internalType": "address",
          "name": "",
          "type": "address"
        }
      ],
      "name": "lastStakeTime",
      "outputs": [
        {
          "internalType": "uint256",
          "name": "",
          "type": "uint256"
        }
      ],
      "stateMutability": "view",
      "type": "function"
    },
    {
      "inputs": [
        {
          "internalType": "address",
          "name": "to",
          "type": "address"
        },
        {
          "internalType": "uint256",
          "name": "amount",
          "type": "uint256"
        }
      ],
      "name": "mint",
      "outputs": [],
      "stateMutability": "nonpayable",
      "type": "function"
    },
    {
      "inputs": [],
      "name": "name",
      "outputs": [
        {
          "internalType": "string",
          "name": "",
          "type": "string"
        }
      ],
      "stateMutability": "view",
      "type": "function"
    },
    {
      "inputs": [],
      "name": "owner",
      "outputs": [
        {
          "internalType": "address",
          "name": "",
          "type": "address"
        }
      ],
      "stateMutability": "view",
      "type": "function"
    },
    {
      "inputs": [],
      "name": "renounceOwnership",
      "outputs": [],
      "stateMutability": "nonpayable",
      "type": "function"
    },
    {
      "inputs": [
        {
          "internalType": "uint256",
          "name": "amount",
          "type": "uint256"
        }
      ],
      "name": "stake",
      "outputs": [],
      "stateMutability": "nonpayable",
      "type": "function"
    },
    {
      "inputs": [
        {
          "internalType": "address",
          "name": "",
          "type": "address"
        }
      ],
      "name": "stakingBalance",
      "outputs": [
        {
          "internalType": "uint256",
          "name": "",
          "type": "uint256"
        }
      ],
      "stateMutability": "view",
      "type": "function"
    },
    {
      "inputs": [
        {
          "internalType": "bool[5]",
          "name": "answers",
          "type": "bool[5]"
        }
      ],
      "name": "submitQuizAnswers",
      "outputs": [],
      "stateMutability": "nonpayable",
      "type": "function"
    },
    {
      "inputs": [],
      "name": "symbol",
      "outputs": [
        {
          "internalType": "string",
          "name": "",
          "type": "string"
        }
      ],
      "stateMutability": "view",
      "type": "function"
    },
    {
      "inputs": [],
      "name": "totalSupply",
      "outputs": [
        {
          "internalType": "uint256",
          "name": "",
          "type": "uint256"
        }
      ],
      "stateMutability": "view",
      "type": "function"
    },
    {
      "inputs": [
        {
          "internalType": "address",
          "name": "to",
          "type": "address"
        },
        {
          "internalType": "uint256",
          "name": "value",
          "type": "uint256"
        }
      ],
      "name": "transfer",
      "outputs": [
        {
          "internalType": "bool",
          "name": "",
          "type": "bool"
        }
      ],
      "stateMutability": "nonpayable",
      "type": "function"
    },
    {
      "inputs": [
        {
          "internalType": "address",
          "name": "from",
          "type": "address"
        },
        {
          "internalType": "address",
          "name": "to",
          "type": "address"
        },
        {
          "internalType": "uint256",
          "name": "value",
          "type": "uint256"
        }
      ],
      "name": "transferFrom",
      "outputs": [
        {
          "internalType": "bool",
          "name": "",
          "type": "bool"
        }
      ],
      "stateMutability": "nonpayable",
      "type": "function"
    },
    {
      "inputs": [
        {
          "internalType": "address",
          "name": "newOwner",
          "type": "address"
        }
      ],
      "name": "transferOwnership",
      "outputs": [],
      "stateMutability": "nonpayable",
      "type": "function"
    },
    {
      "inputs": [],
      "name": "unstake",
      "outputs": [],
      "stateMutability": "nonpayable",
      "type": "function"
    }
  ],
  "bytecode": "0x61012060405260016080818152600060a081905260c083905260e0929092526101009190915262000035906009906005620002d4565b503480156200004357600080fd5b50336040518060400160405280600981526020016829b1b7ba3a31b7b4b760b91b8152506040518060400160405280600581526020016414d0d3d51560da1b815250816003908162000096919062000429565b506004620000a5828262000429565b5050506001600160a01b038116620000d857604051631e4fbdf760e01b8152600060048201526024015b60405180910390fd5b620000e38162000111565b506200010b33620000f76012600a6200060a565b620001059061271062000622565b62000163565b62000652565b600580546001600160a01b038381166001600160a01b0319831681179093556040519116919082907f8be0079c531659141344cd1fd0a4f28419497f9722a3daafe3b4186f6b6457e090600090a35050565b6001600160a01b0382166200018f5760405163ec442f0560e01b815260006004820152602401620000cf565b6200019d60008383620001a1565b5050565b6001600160a01b038316620001d0578060026000828254620001c491906200063c565b90915550620002449050565b6001600160a01b03831660009081526020819052604090205481811015620002255760405163391434e360e21b81526001600160a01b03851660048201526024810182905260448101839052606401620000cf565b6001600160a01b03841660009081526020819052604090209082900390555b6001600160a01b038216620002625760028054829003905562000281565b6001600160a01b03821660009081526020819052604090208054820190555b816001600160a01b0316836001600160a01b03167fddf252ad1be2c89b69c2b068fc378daa952ba7f163c4a11628f55a4df523b3ef83604051620002c791815260200190565b60405180910390a3505050565b6001830191839082156200035b5791602002820160005b838211156200032a57835183826101000a81548160ff0219169083151502179055509260200192600101602081600001049283019260010302620002eb565b8015620003595782816101000a81549060ff02191690556001016020816000010492830192600103026200032a565b505b50620003699291506200036d565b5090565b5b808211156200036957600081556001016200036e565b634e487b7160e01b600052604160045260246000fd5b600181811c90821680620003af57607f821691505b602082108103620003d057634e487b7160e01b600052602260045260246000fd5b50919050565b601f8211156200042457600081815260208120601f850160051c81016020861015620003ff5750805b601f850160051c820191505b8181101562000420578281556001016200040b565b5050505b505050565b81516001600160401b0381111562000445576200044562000384565b6200045d816200045684546200039a565b84620003d6565b602080601f8311600181146200049557600084156200047c5750858301515b600019600386901b1c1916600185901b17855562000420565b600085815260208120601f198616915b82811015620004c657888601518255948401946001909101908401620004a5565b5085821015620004e55787850151600019600388901b60f8161c191681555b5050505050600190811b01905550565b634e487b7160e01b600052601160045260246000fd5b600181815b808511156200054c578160001904821115620005305762000530620004f5565b808516156200053e57918102915b93841c939080029062000510565b509250929050565b600082620005655750600162000604565b81620005745750600062000604565b81600181146200058d57600281146200059857620005b8565b600191505062000604565b60ff841115620005ac57620005ac620004f5565b50506001821b62000604565b5060208310610133831016604e8410600b8410161715620005dd575081810a62000604565b620005e983836200050b565b8060001904821115620006005762000600620004f5565b0290505b92915050565b60006200061b60ff84168362000554565b9392505050565b8082028115828204841417620006045762000604620004f5565b80820180821115620006045762000604620004f5565b610e1d80620006626000396000f3fe608060405234801561001057600080fd5b506004361061014d5760003560e01c806372ff32a7116100c3578063a694fc3a1161007c578063a694fc3a146102d0578063a9059cbb146102e3578063b04ef9c2146102f6578063d82e39621461031f578063dd62ed3e14610332578063f2fde38b1461036b57600080fd5b806372ff32a71461024857806379600084146102575780637bb1ca191461026a57806384a850b11461028a5780638da5cb5b146102ad57806395d89b41146102c857600080fd5b8063313ce56711610115578063313ce567146101c257806340c10f19146101d157806345bc78ab146101e45780634df9d6ba1461020457806370a0823114610217578063715018a61461024057600080fd5b806306fdde0314610152578063095ea7b31461017057806318160ddd1461019357806323b872dd146101a55780632def6620146101b8575b600080fd5b61015a61037e565b6040516101679190610b87565b60405180910390f35b61018361017e366004610bf1565b610410565b6040519015158152602001610167565b6002545b604051908152602001610167565b6101836101b3366004610c1b565b61042a565b6101c061044e565b005b60405160128152602001610167565b6101c06101df366004610bf1565b6104ec565b6101976101f2366004610c57565b60066020526000908152604090205481565b610197610212366004610c57565b610502565b610197610225366004610c57565b6001600160a01b031660009081526020819052604090205490565b6101c061050d565b610197678ac7230489e8000081565b6101c0610265366004610c79565b610521565b610197610278366004610c57565b60076020526000908152604090205481565b610183610298366004610c57565b60086020526000908152604090205460ff1681565b6005546040516001600160a01b039091168152602001610167565b61015a61062d565b6101c06102de366004610ca1565b61063c565b6101836102f1366004610bf1565b61071e565b610197610304366004610c57565b6001600160a01b031660009081526006602052604090205490565b61019761032d366004610c57565b61072c565b610197610340366004610cba565b6001600160a01b03918216600090815260016020908152604080832093909416825291909152205490565b6101c0610379366004610c57565b6107a6565b60606003805461038d90610ced565b80601f01602080910402602001604051908101604052809291908181526020018280546103b990610ced565b80156104065780601f106103db57610100808354040283529160200191610406565b820191906000526020600020905b8154815290600101906020018083116103e957829003601f168201915b5050505050905090565b60003361041e8185856107e4565b60019150505b92915050565b6000336104388582856107f6565b610443858585610874565b506001949350505050565b33600090815260066020526040902054806104a35760405162461bcd60e51b815260206004820152601060248201526f139bc81d1bdad95b9cc81cdd185ad95960821b60448201526064015b60405180910390fd5b60006104ae3361072c565b905080156104c0576104c033826108d3565b6104cb303384610874565b50503360009081526006602090815260408083208390556007909152812055565b6104f4610909565b6104fe82826108d3565b5050565b60006104248261072c565b610515610909565b61051f6000610936565b565b3360009081526008602052604090205460ff161561057a5760405162461bcd60e51b8152602060048201526016602482015275145d5a5e88185b1c9958591e4818dbdb5c1b195d195960521b604482015260640161049a565b600160005b60058110156105fa576009816005811061059b5761059b610d21565b602081049091015460ff601f9092166101000a90041615158382600581106105c5576105c5610d21565b6020020160208101906105d89190610d37565b1515146105e857600091506105fa565b806105f281610d6f565b91505061057f565b50336000908152600860205260409020805460ff1916600117905580156104fe576104fe33678ac7230489e800006108d3565b60606004805461038d90610ced565b600081116106845760405162461bcd60e51b815260206004820152601560248201527443616e6e6f74207374616b65203020746f6b656e7360581b604482015260640161049a565b336000908152602081905260409020548111156106da5760405162461bcd60e51b8152602060048201526014602482015273496e73756666696369656e742062616c616e636560601b604482015260640161049a565b6106e5333083610874565b3360009081526006602052604081208054839290610704908490610d88565b909155505033600090815260076020526040902042905550565b60003361041e818585610874565b6001600160a01b0381166000908152600660205260408120548082036107555750600092915050565b6001600160a01b0383166000908152600760205260408120546107789042610d9b565b905063bbf81e006107898284610dae565b610794906001610dae565b61079e9190610dc5565b949350505050565b6107ae610909565b6001600160a01b0381166107d857604051631e4fbdf760e01b81526000600482015260240161049a565b6107e181610936565b50565b6107f18383836001610988565b505050565b6001600160a01b03838116600090815260016020908152604080832093861683529290522054600019811461086e578181101561085f57604051637dc7a0d960e11b81526001600160a01b0384166004820152602481018290526044810183905260640161049a565b61086e84848484036000610988565b50505050565b6001600160a01b03831661089e57604051634b637e8f60e11b81526000600482015260240161049a565b6001600160a01b0382166108c85760405163ec442f0560e01b81526000600482015260240161049a565b6107f1838383610a5d565b6001600160a01b0382166108fd5760405163ec442f0560e01b81526000600482015260240161049a565b6104fe60008383610a5d565b6005546001600160a01b0316331461051f5760405163118cdaa760e01b815233600482015260240161049a565b600580546001600160a01b038381166001600160a01b0319831681179093556040519116919082907f8be0079c531659141344cd1fd0a4f28419497f9722a3daafe3b4186f6b6457e090600090a35050565b6001600160a01b0384166109b25760405163e602df0560e01b81526000600482015260240161049a565b6001600160a01b0383166109dc57604051634a1406b160e11b81526000600482015260240161049a565b6001600160a01b038085166000908152600160209081526040808320938716835292905220829055801561086e57826001600160a01b0316846001600160a01b03167f8c5be1e5ebec7d5bd14f71427d1e84f3dd0314c0f7b2291e5b200ac8c7c3b92584604051610a4f91815260200190565b60405180910390a350505050565b6001600160a01b038316610a88578060026000828254610a7d9190610d88565b90915550610afa9050565b6001600160a01b03831660009081526020819052604090205481811015610adb5760405163391434e360e21b81526001600160a01b0385166004820152602481018290526044810183905260640161049a565b6001600160a01b03841660009081526020819052604090209082900390555b6001600160a01b038216610b1657600280548290039055610b35565b6001600160a01b03821660009081526020819052604090208054820190555b816001600160a01b0316836001600160a01b03167fddf252ad1be2c89b69c2b068fc378daa952ba7f163c4a11628f55a4df523b3ef83604051610b7a91815260200190565b60405180910390a3505050565b600060208083528351808285015260005b81811015610bb457858101830151858201604001528201610b98565b506000604082860101526040601f19601f8301168501019250505092915050565b80356001600160a01b0381168114610bec57600080fd5b919050565b60008060408385031215610c0457600080fd5b610c0d83610bd5565b946020939093013593505050565b600080600060608486031215610c3057600080fd5b610c3984610bd5565b9250610c4760208501610bd5565b9150604084013590509250925092565b600060208284031215610c6957600080fd5b610c7282610bd5565b9392505050565b600060a08284031215610c8b57600080fd5b8260a083011115610c9b57600080fd5b50919050565b600060208284031215610cb357600080fd5b5035919050565b60008060408385031215610ccd57600080fd5b610cd683610bd5565b9150610ce460208401610bd5565b90509250929050565b600181811c90821680610d0157607f821691505b602082108103610c9b57634e487b7160e01b600052602260045260246000fd5b634e487b7160e01b600052603260045260246000fd5b600060208284031215610d4957600080fd5b81358015158114610c7257600080fd5b634e487b7160e01b600052601160045260246000fd5b600060018201610d8157610d81610d59565b5060010190565b8082018082111561042457610424610d59565b8181038181111561042457610424610d59565b808202811582820484141761042457610424610d59565b600082610de257634e487b7160e01b600052601260045260246000fd5b50049056fea26469706673582212200d97990919a3ea36d1e2b022f7aa31fc8ad5640575f29573db315dd6765944a764736f6c63430008140033",
  "linkReferences": {},
  "deployedLinkReferences": {}
}